{
  "contractName": "FaireumDice",
  "abi": [
    {
      "constant": true,
      "inputs": [],
      "name": "croupier",
      "outputs": [
        {
          "name": "",
          "type": "address"
        }
      ],
      "payable": false,
      "stateMutability": "view",
      "type": "function"
    },
    {
      "constant": true,
      "inputs": [],
      "name": "owner",
      "outputs": [
        {
          "name": "",
          "type": "address"
        }
      ],
      "payable": false,
      "stateMutability": "view",
      "type": "function"
    },
    {
      "constant": true,
      "inputs": [],
      "name": "lockedInBets",
      "outputs": [
        {
          "name": "",
          "type": "uint128"
        }
      ],
      "payable": false,
      "stateMutability": "view",
      "type": "function"
    },
    {
      "inputs": [],
      "payable": false,
      "stateMutability": "nonpayable",
      "type": "constructor"
    },
    {
      "payable": true,
      "stateMutability": "payable",
      "type": "fallback"
    },
    {
      "constant": false,
      "inputs": [
        {
          "name": "newCroupier",
          "type": "address"
        }
      ],
      "name": "setCroupier",
      "outputs": [],
      "payable": false,
      "stateMutability": "nonpayable",
      "type": "function"
    },
    {
      "constant": false,
      "inputs": [],
      "name": "kill",
      "outputs": [],
      "payable": false,
      "stateMutability": "nonpayable",
      "type": "function"
    },
    {
      "constant": false,
      "inputs": [],
      "name": "placeBet",
      "outputs": [],
      "payable": true,
      "stateMutability": "payable",
      "type": "function"
    },
    {
      "constant": false,
      "inputs": [],
      "name": "settleBet",
      "outputs": [],
      "payable": false,
      "stateMutability": "nonpayable",
      "type": "function"
    }
  ],
  "bytecode": "0x608060405234801561001057600080fd5b5033600260006101000a81548173ffffffffffffffffffffffffffffffffffffffff021916908373ffffffffffffffffffffffffffffffffffffffff16021790555073eeeeeeeeeeeeeeeeeeeeeeeeeeeeeeeeeeeeeeee600360006101000a81548173ffffffffffffffffffffffffffffffffffffffff021916908373ffffffffffffffffffffffffffffffffffffffff1602179055506106a9806100b66000396000f300608060405260043610610083576000357c0100000000000000000000000000000000000000000000000000000000900463ffffffff16806341c0e1b5146100855780636b5c5f391461009c5780638da5cb5b146100f35780638e4bf8201461014a578063df88126f14610161578063f8bb201c146101b0578063f90f4560146101f3575b005b34801561009157600080fd5b5061009a6101fd565b005b3480156100a857600080fd5b506100b16103f1565b604051808273ffffffffffffffffffffffffffffffffffffffff1673ffffffffffffffffffffffffffffffffffffffff16815260200191505060405180910390f35b3480156100ff57600080fd5b50610108610417565b604051808273ffffffffffffffffffffffffffffffffffffffff1673ffffffffffffffffffffffffffffffffffffffff16815260200191505060405180910390f35b34801561015657600080fd5b5061015f61043d565b005b34801561016d57600080fd5b5061017661052a565b60405180826fffffffffffffffffffffffffffffffff166fffffffffffffffffffffffffffffffff16815260200191505060405180910390f35b3480156101bc57600080fd5b506101f1600480360381019080803573ffffffffffffffffffffffffffffffffffffffff16906020019092919050505061054c565b005b6101fb61067b565b005b600260009054906101000a900473ffffffffffffffffffffffffffffffffffffffff1673ffffffffffffffffffffffffffffffffffffffff163373ffffffffffffffffffffffffffffffffffffffff161415156102e8576040517f08c379a000000000000000000000000000000000000000000000000000000000815260040180806020018281038252602d8152602001807f4d75737420626520636f6e7472616374206f776e657220746f20696e766f6b6581526020017f2074686973206d6574686f642e0000000000000000000000000000000000000081525060400191505060405180910390fd5b6000600160009054906101000a90046fffffffffffffffffffffffffffffffff166fffffffffffffffffffffffffffffffff161415156103b6576040517f08c379a00000000000000000000000000000000000000000000000000000000081526004018080602001828103825260368152602001807f436f6e74726163742063616e27742062652064657374726f796564206966207481526020017f6865726520617265206f6e20676f696e6720626574730000000000000000000081525060400191505060405180910390fd5b600260009054906101000a900473ffffffffffffffffffffffffffffffffffffffff1673ffffffffffffffffffffffffffffffffffffffff16ff5b600360009054906101000a900473ffffffffffffffffffffffffffffffffffffffff1681565b600260009054906101000a900473ffffffffffffffffffffffffffffffffffffffff1681565b600360009054906101000a900473ffffffffffffffffffffffffffffffffffffffff1673ffffffffffffffffffffffffffffffffffffffff163373ffffffffffffffffffffffffffffffffffffffff16141515610528576040517f08c379a00000000000000000000000000000000000000000000000000000000081526004018080602001828103825260278152602001807f4d7573742062652063726f757069657220746f20696e766f6b6520746869732081526020017f6d6574686f642e0000000000000000000000000000000000000000000000000081525060400191505060405180910390fd5b565b600160009054906101000a90046fffffffffffffffffffffffffffffffff1681565b600260009054906101000a900473ffffffffffffffffffffffffffffffffffffffff1673ffffffffffffffffffffffffffffffffffffffff163373ffffffffffffffffffffffffffffffffffffffff16141515610637576040517f08c379a000000000000000000000000000000000000000000000000000000000815260040180806020018281038252602d8152602001807f4d75737420626520636f6e7472616374206f776e657220746f20696e766f6b6581526020017f2074686973206d6574686f642e0000000000000000000000000000000000000081525060400191505060405180910390fd5b80600360006101000a81548173ffffffffffffffffffffffffffffffffffffffff021916908373ffffffffffffffffffffffffffffffffffffffff16021790555050565b5600a165627a7a7230582035774b5575151c3647d29bdc197fcd1476e8f8ef0d20afcb221781645109ead70029",
  "source": "pragma solidity >=0.4.0 <0.6.0;\n\n// * Faireum Dice Game Contract\ncontract FaireumDice{\n    \n    // A single bet struct\n    struct Bet {\n        uint amount;\n        uint8 modulo;\n        uint8 rollUnder;\n        uint40 blockNumber;\n        address user;\n    }\n\n    mapping (uint => Bet) bets;\n\n    address constant TEST_ADDRESS = 0xEeeeeEeeeEeEeeEeEeEeeEEEeeeeEeeeeeeeEEeE;\n\n    uint128 public lockedInBets;\n    address public owner;\n    address public croupier;\n\n    // Constructor. \n    constructor () public {\n        owner = msg.sender;\n        croupier = TEST_ADDRESS;\n    }\n\n    modifier onlyOwner {\n        require (msg.sender == owner, \"Must be contract owner to invoke this method.\");\n        _;\n    }\n\n    modifier onlyCroupier {\n        require (msg.sender == croupier, \"Must be croupier to invoke this method.\");\n        _;\n    }\n\n    // Fallback function\n    function () public payable {\n    }\n\n\n    function setCroupier(address newCroupier) external onlyOwner {\n        croupier = newCroupier;\n    }\n\n    function kill() external onlyOwner {\n        require (lockedInBets == 0, \"Contract can't be destroyed if there are on going bets\");\n        selfdestruct(owner);\n    }\n\n    function placeBet() external payable {\n        //TODO\n    }\n\n    function settleBet() external onlyCroupier {\n        //TODO\n    }\n   \n}",
  "sourcePath": "/Users/markfrance/Documents/game.blockchain.dice/contracts/FaireumDice.sol",
  "compiler": {
    "name": "solc",
    "version": "0.4.24+commit.e67f0147.Emscripten.clang"
  },
  "schemaVersion": "2.0.0",
  "updatedAt": "2019-01-02T14:58:33.622Z"
}