{
  "contractName": "FaireumDice",
  "abi": [
    {
      "constant": true,
      "inputs": [],
      "name": "croupier",
      "outputs": [
        {
          "name": "",
          "type": "address"
        }
      ],
      "payable": false,
      "stateMutability": "view",
      "type": "function"
    },
    {
      "constant": true,
      "inputs": [],
      "name": "owner",
      "outputs": [
        {
          "name": "",
          "type": "address"
        }
      ],
      "payable": false,
      "stateMutability": "view",
      "type": "function"
    },
    {
      "constant": true,
      "inputs": [],
      "name": "lockedInBets",
      "outputs": [
        {
          "name": "",
          "type": "uint128"
        }
      ],
      "payable": false,
      "stateMutability": "view",
      "type": "function"
    },
    {
      "inputs": [],
      "payable": false,
      "stateMutability": "nonpayable",
      "type": "constructor"
    },
    {
      "payable": true,
      "stateMutability": "payable",
      "type": "fallback"
    },
    {
      "anonymous": false,
      "inputs": [
        {
          "indexed": false,
          "name": "user",
          "type": "address"
        },
        {
          "indexed": false,
          "name": "amount",
          "type": "uint256"
        }
      ],
      "name": "PaymentCompleted",
      "type": "event"
    },
    {
      "anonymous": false,
      "inputs": [
        {
          "indexed": false,
          "name": "user",
          "type": "address"
        },
        {
          "indexed": false,
          "name": "amount",
          "type": "uint256"
        }
      ],
      "name": "JackpotPaid",
      "type": "event"
    },
    {
      "anonymous": false,
      "inputs": [
        {
          "indexed": false,
          "name": "commit",
          "type": "uint256"
        },
        {
          "indexed": false,
          "name": "user",
          "type": "address"
        },
        {
          "indexed": false,
          "name": "amount",
          "type": "uint256"
        }
      ],
      "name": "BetPlaced",
      "type": "event"
    },
    {
      "constant": false,
      "inputs": [
        {
          "name": "newCroupier",
          "type": "address"
        }
      ],
      "name": "setCroupier",
      "outputs": [],
      "payable": false,
      "stateMutability": "nonpayable",
      "type": "function"
    },
    {
      "constant": false,
      "inputs": [],
      "name": "kill",
      "outputs": [],
      "payable": false,
      "stateMutability": "nonpayable",
      "type": "function"
    },
    {
      "constant": false,
      "inputs": [
        {
          "name": "modulo",
          "type": "uint256"
        },
        {
          "name": "commit",
          "type": "uint256"
        }
      ],
      "name": "placeBet",
      "outputs": [],
      "payable": true,
      "stateMutability": "payable",
      "type": "function"
    },
    {
      "constant": false,
      "inputs": [
        {
          "name": "reveal",
          "type": "uint256"
        },
        {
          "name": "blockHash",
          "type": "bytes32"
        }
      ],
      "name": "settleBet",
      "outputs": [],
      "payable": false,
      "stateMutability": "nonpayable",
      "type": "function"
    }
  ],
  "bytecode": "0x608060405234801561001057600080fd5b5033600160006101000a81548173ffffffffffffffffffffffffffffffffffffffff021916908373ffffffffffffffffffffffffffffffffffffffff16021790555073fa1cb3601a518337de08f67ceda7f23b8a800f52600260006101000a81548173ffffffffffffffffffffffffffffffffffffffff021916908373ffffffffffffffffffffffffffffffffffffffff160217905550610e2f806100b66000396000f300608060405260043610610083576000357c0100000000000000000000000000000000000000000000000000000000900463ffffffff16806341c0e1b5146100855780634afe62b51461009c5780636b5c5f39146100c65780638da5cb5b1461011d578063ca722cdc14610174578063df88126f146101af578063f8bb201c146101fe575b005b34801561009157600080fd5b5061009a610241565b005b6100c46004803603810190808035906020019092919080359060200190929190505050610434565b005b3480156100d257600080fd5b506100db61077c565b604051808273ffffffffffffffffffffffffffffffffffffffff1673ffffffffffffffffffffffffffffffffffffffff16815260200191505060405180910390f35b34801561012957600080fd5b506101326107a2565b604051808273ffffffffffffffffffffffffffffffffffffffff1673ffffffffffffffffffffffffffffffffffffffff16815260200191505060405180910390f35b34801561018057600080fd5b506101ad6004803603810190808035906020019092919080356000191690602001909291905050506107c8565b005b3480156101bb57600080fd5b506101c4610c39565b60405180826fffffffffffffffffffffffffffffffff166fffffffffffffffffffffffffffffffff16815260200191505060405180910390f35b34801561020a57600080fd5b5061023f600480360381019080803573ffffffffffffffffffffffffffffffffffffffff169060200190929190505050610c5a565b005b600160009054906101000a900473ffffffffffffffffffffffffffffffffffffffff1673ffffffffffffffffffffffffffffffffffffffff163373ffffffffffffffffffffffffffffffffffffffff1614151561032c576040517f08c379a000000000000000000000000000000000000000000000000000000000815260040180806020018281038252602d8152602001807f4d75737420626520636f6e7472616374206f776e657220746f20696e766f6b6581526020017f2074686973206d6574686f642e0000000000000000000000000000000000000081525060400191505060405180910390fd5b60008060009054906101000a90046fffffffffffffffffffffffffffffffff166fffffffffffffffffffffffffffffffff161415156103f9576040517f08c379a00000000000000000000000000000000000000000000000000000000081526004018080602001828103825260368152602001807f436f6e74726163742063616e27742062652064657374726f796564206966207481526020017f6865726520617265206f6e20676f696e6720626574730000000000000000000081525060400191505060405180910390fd5b600160009054906101000a900473ffffffffffffffffffffffffffffffffffffffff1673ffffffffffffffffffffffffffffffffffffffff16ff5b6000806000600360008581526020019081526020016000209250600073ffffffffffffffffffffffffffffffffffffffff168360010160079054906101000a900473ffffffffffffffffffffffffffffffffffffffff1673ffffffffffffffffffffffffffffffffffffffff16141515610516576040517f08c379a00000000000000000000000000000000000000000000000000000000081526004018080602001828103825260148152602001807f53686f756c642062652061206e6577206265742e00000000000000000000000081525060200191505060405180910390fd5b34915060018511801561052a575060648511155b151561059e576040517f08c379a00000000000000000000000000000000000000000000000000000000081526004018080602001828103825260178152602001807f4d6f64756c6f206973206f7574206f662072616e67652e00000000000000000081525060200191505060405180910390fd5b662386f26fc1000082101580156105bf57506934f086f3b33b684000008211155b1515610633576040517f08c379a00000000000000000000000000000000000000000000000000000000081526004018080602001828103825260178152602001807f416d6f756e74206973206f7574206f662072616e67652e00000000000000000081525060200191505060405180910390fd5b818360000181905550848360010160006101000a81548160ff021916908360ff160217905550808360010160016101000a81548160ff021916908360ff160217905550438360010160026101000a81548164ffffffffff021916908364ffffffffff160217905550338360010160076101000a81548173ffffffffffffffffffffffffffffffffffffffff021916908373ffffffffffffffffffffffffffffffffffffffff1602179055507f87b9df6fa7123c2e6044c3a3a37b4b0662c188d7a58ef86ee55067c46e4613ad848460010160079054906101000a900473ffffffffffffffffffffffffffffffffffffffff1684604051808481526020018373ffffffffffffffffffffffffffffffffffffffff1673ffffffffffffffffffffffffffffffffffffffff168152602001828152602001935050505060405180910390a15050505050565b600260009054906101000a900473ffffffffffffffffffffffffffffffffffffffff1681565b600160009054906101000a900473ffffffffffffffffffffffffffffffffffffffff1681565b6000806000806000806000806000806000806000600260009054906101000a900473ffffffffffffffffffffffffffffffffffffffff1673ffffffffffffffffffffffffffffffffffffffff163373ffffffffffffffffffffffffffffffffffffffff161415156108c7576040517f08c379a00000000000000000000000000000000000000000000000000000000081526004018080602001828103825260278152602001807f4d7573742062652063726f757069657220746f20696e766f6b6520746869732081526020017f6d6574686f642e0000000000000000000000000000000000000000000000000081525060400191505060405180910390fd5b8e604051602001808281526020019150506040516020818303038152906040526040518082805190602001908083835b60208310151561091c57805182526020820191506020810190506020830392506108f7565b6001836020036101000a0380198251168184511680821785525050505050509050019150506040518091039020600190049c50600360008e81526020019081526020016000209b508b60010160029054906101000a900464ffffffffff1664ffffffffff169a508d600019168b406000191614151561099a57600080fd5b8b6000015499508b60010160009054906101000a900460ff1660ff1698508b60010160019054906101000a900460ff1660ff1697508b60010160079054906101000a900473ffffffffffffffffffffffffffffffffffffffff16965060008a14151515610a6f576040517f08c379a000000000000000000000000000000000000000000000000000000000815260040180806020018281038252601b8152602001807f426574206d75737420686176652076616c756520616d6f756e742e000000000081525060200191505060405180910390fd5b8e8e604051602001808381526020018260001916600019168152602001925050506040516020818303038152906040526040518082805190602001908083835b602083101515610ad45780518252602082019150602081019050602083039250610aaf565b6001836020036101000a03801982511681845116808217855250505050505090500191505060405180910390209550888660019004811515610b1257fe5b069450610b208a8a8a610d89565b8094508195505050600091506000905087851015610b3c578391505b6000811115610bb1577f88c519ab1745d32c7a1e2c97aa7817ca6e8046aaa146002b9ec1c8516ed678548782604051808373ffffffffffffffffffffffffffffffffffffffff1673ffffffffffffffffffffffffffffffffffffffff1681526020018281526020019250505060405180910390a15b60008c600001819055507f2e38404accd41509d8a1b6506e8f2100b828d3d9e56c11ef304c10e91c9a6f4687828401604051808373ffffffffffffffffffffffffffffffffffffffff1673ffffffffffffffffffffffffffffffffffffffff1681526020018281526020019250505060405180910390a1505050505050505050505050505050565b6000809054906101000a90046fffffffffffffffffffffffffffffffff1681565b600160009054906101000a900473ffffffffffffffffffffffffffffffffffffffff1673ffffffffffffffffffffffffffffffffffffffff163373ffffffffffffffffffffffffffffffffffffffff16141515610d45576040517f08c379a000000000000000000000000000000000000000000000000000000000815260040180806020018281038252602d8152602001807f4d75737420626520636f6e7472616374206f776e657220746f20696e766f6b6581526020017f2074686973206d6574686f642e0000000000000000000000000000000000000081525060400191505060405180910390fd5b80600260006101000a81548173ffffffffffffffffffffffffffffffffffffffff021916908373ffffffffffffffffffffffffffffffffffffffff16021790555050565b6000806000670214e8348c4f0000861015610da5576000610dae565b6605543df729c0005b91506064600a600f811515610dbf57fe5b048702811515610dcb57fe5b04905065b5e620f48000811015610de65765b5e620f4800090505b8385838389030302811515610df757fe5b049250509350939150505600a165627a7a72305820dcf5c62dd277b92b9b03340e4cac1afe686319e59e6d0e6830aa909313d384370029",
  "source": "pragma solidity >=0.4.0 <0.6.0;\n\n// @title Faireum Dice Game Contract\ncontract FaireumDice{\n    \n    // State Variables\n    uint constant MIN_BET = 0.01 ether;\n    uint constant MAX_AMOUNT = 250000 ether;\n\n    uint constant HOUSE_PERCENT = 15;\n    uint constant HOUSE_MINIMUM_AMOUNT = 0.0002 ether;\n\n    uint constant JACKPOT_MODULO = 1000;\n    uint constant JACKPOT_FEE = 0.0015 ether;\n    uint constant MIN_JACKPOT_BET = 0.15 ether;\n\n    uint128 public lockedInBets;\n    address public owner;\n    address public croupier;\n\n    mapping (uint => Bet) bets;\n\n    // A single bet struct\n    struct Bet {\n        uint amount;\n        uint8 modulo;\n        uint8 rollUnder;\n        uint40 blockNumber;\n        address user;\n    }\n\n    //Events\n    event PaymentCompleted(address user, uint amount);\n    event JackpotPaid(address user, uint amount);\n    event BetPlaced(uint commit, address user, uint amount);\n\n\n    //Modifiers\n    modifier onlyOwner {\n        require (msg.sender == owner, \"Must be contract owner to invoke this method.\");\n        _;\n    }\n\n    modifier onlyCroupier {\n        require (msg.sender == croupier, \"Must be croupier to invoke this method.\");\n        _;\n    }\n\n    // Constructor. \n    constructor () public {\n        owner = msg.sender;\n        croupier = address(0xFa1cb3601A518337DE08F67Ceda7f23B8A800F52);\n    }\n\n    // Fallback function. Deliberately left empty.\n    function () public payable {\n    }\n\n\n    function setCroupier(address newCroupier) external onlyOwner {\n        croupier = newCroupier;\n    }\n\n    function kill() external onlyOwner {\n        require (lockedInBets == 0, \"Contract can't be destroyed if there are on going bets\");\n        selfdestruct(owner);\n    }\n\n    // @dev Logic for placing a bet, recieves value of bet\n    // @param modulo - Modulo for the game\n    // @param commit - Unique bet identifier (Keccak256 hash)\n    function placeBet (\n        uint modulo, \n        uint commit\n    ) \n        external payable \n    {\n        Bet storage bet = bets[commit];\n        require (bet.user == address(0), \"Should be a new bet.\");\n\n        //Validate amounts\n        uint amount = msg.value;\n        require (modulo > 1 && modulo <= 100, \"Modulo is out of range.\");\n        require (amount >= MIN_BET && amount <= MAX_AMOUNT, \"Amount is out of range.\");\n        \n        uint rollUnder;\n\n        //TODO\n\n        //Store bet\n        bet.amount = amount;\n        bet.modulo = uint8(modulo);\n        bet.rollUnder = uint8(rollUnder);\n        bet.blockNumber = uint40(block.number);\n        bet.user = msg.sender;\n\n        emit BetPlaced(commit, bet.user, amount);\n    }\n\n    // @dev returns the expected amount to win after subtracting house edge\n    // @param amount - bet amount\n    // @param modulo - modulo of the game\n    // @param rollUnder - number to roll under\n    function getDiceWinAmount(\n        uint amount, \n        uint modulo, \n        uint rollUnder\n    ) \n        private \n        pure \n        returns (uint winAmount, uint jackpotFee) \n    {\n       //TODO use safe math\n        jackpotFee = amount >= MIN_JACKPOT_BET ? JACKPOT_FEE : 0;\n\n        uint houseEdge = amount * (HOUSE_PERCENT / 10) / 100;\n\n        if (houseEdge < HOUSE_MINIMUM_AMOUNT) {\n            houseEdge = HOUSE_MINIMUM_AMOUNT;\n        }\n\n        winAmount = (amount - houseEdge - jackpotFee) * modulo / rollUnder;\n    }\n\n    // @dev settles the bet\n    function settleBet(\n        uint reveal, \n        bytes32 blockHash\n    ) \n        external \n        onlyCroupier \n    {\n        uint commit = uint(keccak256(abi.encodePacked(reveal)));\n\n        Bet storage bet = bets[commit];\n        uint blockNumber = bet.blockNumber;\n\n        require (blockhash(blockNumber) == blockHash);\n\n        uint amount = bet.amount;\n        uint modulo = bet.modulo;\n        uint rollUnder = bet.rollUnder;\n        address user = bet.user;\n\n        require (amount != 0, \"Bet must have value amount.\");\n\n        bytes32 random = keccak256(abi.encodePacked(reveal, blockHash));\n        uint diceRoll = uint(random) % modulo;\n\n        uint diceWinAmount;\n        uint jackpotFee;\n        (diceWinAmount, jackpotFee) = getDiceWinAmount(amount, modulo, rollUnder);\n\n        uint diceWin = 0;\n        uint jackpotWin = 0;\n\n        if (diceRoll < rollUnder) {\n            diceWin = diceWinAmount;\n        }\n\n        if (jackpotWin > 0) {\n            emit JackpotPaid(user, jackpotWin);\n        }\n\n        bet.amount = 0;\n        emit PaymentCompleted(user, diceWin + jackpotWin);\n    }\n   \n}",
  "sourcePath": "/Users/markfrance/Documents/game.blockchain.dice/contracts/FaireumDice.sol",
  "compiler": {
    "name": "solc",
    "version": "0.4.24+commit.e67f0147.Emscripten.clang"
  },
  "schemaVersion": "2.0.0",
  "updatedAt": "2019-01-10T05:29:02.955Z"
}